{
  "contractName": "lottery",
  "abi": [
    {
      "inputs": [],
      "stateMutability": "nonpayable",
      "type": "constructor"
    },
    {
      "inputs": [],
      "name": "manager",
      "outputs": [
        {
          "internalType": "address",
          "name": "",
          "type": "address"
        }
      ],
      "stateMutability": "view",
      "type": "function",
      "constant": true
    },
    {
      "inputs": [
        {
          "internalType": "uint256",
          "name": "",
          "type": "uint256"
        }
      ],
      "name": "players",
      "outputs": [
        {
          "internalType": "address payable",
          "name": "",
          "type": "address"
        }
      ],
      "stateMutability": "view",
      "type": "function",
      "constant": true
    },
    {
      "inputs": [],
      "name": "enter",
      "outputs": [],
      "stateMutability": "payable",
      "type": "function",
      "payable": true
    },
    {
      "inputs": [],
      "name": "pickWinner",
      "outputs": [],
      "stateMutability": "nonpayable",
      "type": "function"
    }
  ],
  "bytecode": "0x608060405234801561001057600080fd5b50336000806101000a81548173ffffffffffffffffffffffffffffffffffffffff021916908373ffffffffffffffffffffffffffffffffffffffff160217905550610751806100606000396000f3fe60806040526004361061003f5760003560e01c8063481c6a75146100445780635d495aea1461006f578063e97dcb6214610086578063f71d96cb14610090575b600080fd5b34801561005057600080fd5b506100596100cd565b6040516100669190610426565b60405180910390f35b34801561007b57600080fd5b506100846100f1565b005b61008e61024d565b005b34801561009c57600080fd5b506100b760048036038101906100b2919061047c565b6102c6565b6040516100c491906104ca565b60405180910390f35b60008054906101000a900473ffffffffffffffffffffffffffffffffffffffff1681565b60008054906101000a900473ffffffffffffffffffffffffffffffffffffffff1673ffffffffffffffffffffffffffffffffffffffff163373ffffffffffffffffffffffffffffffffffffffff161461014957600080fd5b6000600180549050610159610305565b6101639190610514565b90506001818154811061017957610178610545565b5b9060005260206000200160009054906101000a900473ffffffffffffffffffffffffffffffffffffffff1673ffffffffffffffffffffffffffffffffffffffff166108fc479081150290604051600060405180830381858888f193505050501580156101e9573d6000803e3d6000fd5b50600067ffffffffffffffff81111561020557610204610574565b5b6040519080825280602002602001820160405280156102335781602001602082028036833780820191505090505b506001908051906020019061024992919061033e565b5050565b662386f26fc1000034101561026157600080fd5b6001339080600181540180825580915050600190039060005260206000200160009091909190916101000a81548173ffffffffffffffffffffffffffffffffffffffff021916908373ffffffffffffffffffffffffffffffffffffffff160217905550565b600181815481106102d657600080fd5b906000526020600020016000915054906101000a900473ffffffffffffffffffffffffffffffffffffffff1681565b60004244600160405160200161031d939291906106e2565b6040516020818303038152906040528051906020012060001c60ff16905090565b8280548282559060005260206000209081019282156103b7579160200282015b828111156103b65782518260006101000a81548173ffffffffffffffffffffffffffffffffffffffff021916908373ffffffffffffffffffffffffffffffffffffffff1602179055509160200191906001019061035e565b5b5090506103c491906103c8565b5090565b5b808211156103e15760008160009055506001016103c9565b5090565b600073ffffffffffffffffffffffffffffffffffffffff82169050919050565b6000610410826103e5565b9050919050565b61042081610405565b82525050565b600060208201905061043b6000830184610417565b92915050565b600080fd5b6000819050919050565b61045981610446565b811461046457600080fd5b50565b60008135905061047681610450565b92915050565b60006020828403121561049257610491610441565b5b60006104a084828501610467565b91505092915050565b60006104b4826103e5565b9050919050565b6104c4816104a9565b82525050565b60006020820190506104df60008301846104bb565b92915050565b7f4e487b7100000000000000000000000000000000000000000000000000000000600052601260045260246000fd5b600061051f82610446565b915061052a83610446565b92508261053a576105396104e5565b5b828206905092915050565b7f4e487b7100000000000000000000000000000000000000000000000000000000600052603260045260246000fd5b7f4e487b7100000000000000000000000000000000000000000000000000000000600052604160045260246000fd5b6000819050919050565b6105be6105b982610446565b6105a3565b82525050565b600081549050919050565b600081905092915050565b60008190508160005260206000209050919050565b6105f8816104a9565b82525050565b600061060a83836105ef565b60208301905092915050565b60008160001c9050919050565b600073ffffffffffffffffffffffffffffffffffffffff82169050919050565b600061065661065183610616565b610623565b9050919050565b60006106698254610643565b9050919050565b6000600182019050919050565b6000610688826105c4565b61069281856105cf565b935061069d836105da565b8060005b838110156106d5576106b28261065d565b6106bc88826105fe565b97506106c783610670565b9250506001810190506106a1565b5085935050505092915050565b60006106ee82866105ad565b6020820191506106fe82856105ad565b60208201915061070e828461067d565b915081905094935050505056fea26469706673582212209c950d22f9238c1ca785ab895ef06ea96dea3cfbd42b23e1818cd2a1ca28faf864736f6c63430008110033",
  "immutableReferences": {},
  "source": "pragma solidity ^0.8.0;\r\ncontract lottery{\r\n  address public manager;\r\n  address payable[] public players;\r\n  constructor (){\r\n    manager=msg.sender;\r\n  }\r\n  function enter() payable public{\r\n    require(msg.value>=.01 ether);\r\n    players.push(payable(msg.sender));\r\n  }\r\n  function pickWinner()public{\r\n    require(msg.sender==manager);\r\n    uint256 index=random()%players.length;\r\n    players[index].transfer(address(this).balance);\r\n    players=new address payable[](0);\r\n  }\r\n  function random()private returns(uint){\r\n    return uint8(uint256(keccak256(abi.encodePacked(block.timestamp, block.difficulty, players))));\r\n  }\r\n}",
  "sourcePath": "C:\\Users\\pc\\Downloads\\defi-staking-app-starter-main\\Lottery\\Lottery\\src\\contracts\\lottery.sol",
  "compiler": {
    "name": "solc",
    "version": "0.8.17+commit.8df45f5f.Emscripten.clang"
  },
  "schemaVersion": "3.4.11",
  "updatedAt": "2023-01-06T12:57:52.491Z",
  "networkType": "ethereum",
  "devdoc": {
    "kind": "dev",
    "methods": {},
    "version": 1
  },
  "userdoc": {
    "kind": "user",
    "methods": {},
    "version": 1
  }
}